:10026B00021600000A0A3F065B4F666D7D077F6F23
:04027B000208FEFD7A
:0B028000EF1FAC0670011E4C70F62250
:10011A007518007519C8E5191519AE187002151861
:10012A004E604BAE16AF177C007D0A12008F740A20
:10013A002FF8E6F514AE16AF177C007D0A12008F71
:10014A00740A2DF8E6F515E4FBEBC3940274809467
:10015A008050C37F647E00120280E4F58074082B0D
:0E016A00F8E6F5A074142BF8E6F5800B80DBA8
:010178002264
:070253001201B57F647E007B
:10025A00D3EF9400EE94004007EF1F70F31E80F076
:01026A002271
:1001E100E4FDD2B37F08FE12025AC2B37F507E00F3
:1001F10012025AD2B37F0E7E0012025AA2B3E43326
:08020100FD7F147E0002025A89
:10020900E4FC7D08EDD39400748094804017C2B358
:10021900EC13FCD2B330B3034304807F047E001295
:07022900025A1D80DFAF0443
:0102300022AB
:0201B500AD0794
:1001B7007B08EBD3940074809480401DC2B3ED1389
:1001C70092B330B3047F0180027F057E0012025A8A
:0901D700D2B3EDC313FD1B80D966
:0101E00022FC
:10017900E4FBFFFDFC1201E17FCC1201B57F4412C3
:1001890002531201E17FCC1201B57FBE1202531254
:100199000209AB07120209EFFE7C00E42BFFEC3EDB
:0B01A900C4F854F0C8EFC4540F48FF26
:0101B4002228
:10023100C2B71201797516008F1712011AD3E5178B
:10024100941EE516648094804004D2B780E4C2B75E
:0202510080E04B
:03000000020003F8
:0C000300787FE4F6D8FD75811902004AF0
:10008F00C2D5EC30E709B2D5E4C39DFDE49CFCEE8C
:10009F0030E715B2D5E4C39FFFE49EFE1200C5C33F
:1000AF00E49DFDE49CFC80031200C530D507C3E43A
:0600BF009FFFE49EFE22FB
:10000F00020231E493A3F8E493A34003F68001F2D4
:10001F0008DFF48029E493A3F85407240CC8C333F2
:10002F00C4540F4420C8834004F456800146F6DFC1
:10003F00E4800B010204081020408090026BE47EE4
:10004F00019360BCA3FF543F30E509541FFEE493B6
:10005F00A360010ECF54C025E060A840B8E493A37D
:10006F00FAE493A3F8E493A3C8C582C8CAC583CAA8
:10007F00F0A3C8C582C8CAC583CADFE9DEE780BE60
:01027F00007E
:1000C500BC000BBE0029EF8DF084FFADF022E4CC1F
:1000D500F875F008EF2FFFEE33FEEC33FCEE9DECE8
:1000E500984005FCEE9DFE0FD5F0E9E4CEFD22ED2E
:1000F500F8F5F0EE8420D21CFEADF075F008EF2F78
:10010500FFED33FD4007985006D5F0F222C398FD68
:050115000FD5F0EA2205
:00000001FF
